{
  "_format": "hh-sol-artifact-1",
  "contractName": "Election",
  "sourceName": "contracts/Election.sol",
  "abi": [
    {
      "inputs": [
        {
          "internalType": "string[]",
          "name": "_candidateNames",
          "type": "string[]"
        }
      ],
      "stateMutability": "nonpayable",
      "type": "constructor"
    },
    {
      "inputs": [
        {
          "internalType": "uint256",
          "name": "",
          "type": "uint256"
        }
      ],
      "name": "candidates",
      "outputs": [
        {
          "internalType": "string",
          "name": "name",
          "type": "string"
        },
        {
          "internalType": "uint256",
          "name": "votes",
          "type": "uint256"
        }
      ],
      "stateMutability": "view",
      "type": "function"
    },
    {
      "inputs": [
        {
          "internalType": "uint256",
          "name": "_candidate",
          "type": "uint256"
        }
      ],
      "name": "castVote",
      "outputs": [],
      "stateMutability": "nonpayable",
      "type": "function"
    },
    {
      "inputs": [],
      "name": "leader",
      "outputs": [
        {
          "internalType": "address",
          "name": "",
          "type": "address"
        }
      ],
      "stateMutability": "view",
      "type": "function"
    },
    {
      "inputs": [
        {
          "internalType": "address",
          "name": "voter",
          "type": "address"
        }
      ],
      "name": "registerVoter",
      "outputs": [],
      "stateMutability": "nonpayable",
      "type": "function"
    },
    {
      "inputs": [
        {
          "internalType": "address",
          "name": "",
          "type": "address"
        }
      ],
      "name": "voters",
      "outputs": [
        {
          "internalType": "bool",
          "name": "registered",
          "type": "bool"
        },
        {
          "internalType": "bool",
          "name": "voted",
          "type": "bool"
        },
        {
          "internalType": "uint256",
          "name": "vote",
          "type": "uint256"
        }
      ],
      "stateMutability": "view",
      "type": "function"
    },
    {
      "inputs": [],
      "name": "winningCandidate",
      "outputs": [
        {
          "internalType": "uint256",
          "name": "winningCandidate_",
          "type": "uint256"
        }
      ],
      "stateMutability": "view",
      "type": "function"
    },
    {
      "inputs": [],
      "name": "winningCandidateName",
      "outputs": [
        {
          "internalType": "string",
          "name": "winnerName_",
          "type": "string"
        }
      ],
      "stateMutability": "view",
      "type": "function"
    }
  ],
  "bytecode": "0x60806040523480156200001157600080fd5b5060405162001555380380620015558339818101604052810190620000379190620003a9565b336000806101000a81548173ffffffffffffffffffffffffffffffffffffffff021916908373ffffffffffffffffffffffffffffffffffffffff16021790555060018060008060009054906101000a900473ffffffffffffffffffffffffffffffffffffffff1673ffffffffffffffffffffffffffffffffffffffff1673ffffffffffffffffffffffffffffffffffffffff16815260200190815260200160002060000160006101000a81548160ff02191690831515021790555060005b8151811015620001c2576002604051806040016040528084848151811062000146577f4e487b7100000000000000000000000000000000000000000000000000000000600052603260045260246000fd5b602002602001015181526020016000815250908060018154018082558091505060019003906000526020600020906002020160009091909190915060008201518160000190805190602001906200019f929190620001ca565b506020820151816001015550508080620001b99062000528565b915050620000f5565b505062000614565b828054620001d890620004bc565b90600052602060002090601f016020900481019282620001fc576000855562000248565b82601f106200021757805160ff191683800117855562000248565b8280016001018555821562000248579182015b82811115620002475782518255916020019190600101906200022a565b5b5090506200025791906200025b565b5090565b5b80821115620002765760008160009055506001016200025c565b5090565b6000620002916200028b8462000417565b620003ee565b90508083825260208201905082856020860282011115620002b157600080fd5b60005b858110156200030057815167ffffffffffffffff811115620002d557600080fd5b808601620002e489826200037c565b85526020850194506020840193505050600181019050620002b4565b5050509392505050565b6000620003216200031b8462000446565b620003ee565b9050828152602081018484840111156200033a57600080fd5b6200034784828562000486565b509392505050565b600082601f8301126200036157600080fd5b8151620003738482602086016200027a565b91505092915050565b600082601f8301126200038e57600080fd5b8151620003a08482602086016200030a565b91505092915050565b600060208284031215620003bc57600080fd5b600082015167ffffffffffffffff811115620003d757600080fd5b620003e5848285016200034f565b91505092915050565b6000620003fa6200040d565b9050620004088282620004f2565b919050565b6000604051905090565b600067ffffffffffffffff821115620004355762000434620005d4565b5b602082029050602081019050919050565b600067ffffffffffffffff821115620004645762000463620005d4565b5b6200046f8262000603565b9050602081019050919050565b6000819050919050565b60005b83811015620004a657808201518184015260208101905062000489565b83811115620004b6576000848401525b50505050565b60006002820490506001821680620004d557607f821691505b60208210811415620004ec57620004eb620005a5565b5b50919050565b620004fd8262000603565b810181811067ffffffffffffffff821117156200051f576200051e620005d4565b5b80604052505050565b600062000535826200047c565b91507fffffffffffffffffffffffffffffffffffffffffffffffffffffffffffffffff8214156200056b576200056a62000576565b5b600182019050919050565b7f4e487b7100000000000000000000000000000000000000000000000000000000600052601160045260246000fd5b7f4e487b7100000000000000000000000000000000000000000000000000000000600052602260045260246000fd5b7f4e487b7100000000000000000000000000000000000000000000000000000000600052604160045260246000fd5b6000601f19601f8301169050919050565b610f3180620006246000396000f3fe608060405234801561001057600080fd5b506004361061007d5760003560e01c806340eedabb1161005b57806340eedabb146100eb578063a3ec138d14610109578063d28178d71461013b578063d45236fd146101595761007d565b80633477ee2e1461008257806338db6dd3146100b35780633eb76b9c146100cf575b600080fd5b61009c600480360381019061009791906108fa565b610177565b6040516100aa929190610acf565b60405180910390f35b6100cd60048036038101906100c891906108d1565b610233565b005b6100e960048036038101906100e491906108fa565b61043e565b005b6100f36105ec565b6040516101009190610a5b565b60405180910390f35b610123600480360381019061011e91906108d1565b610610565b60405161013293929190610a76565b60405180910390f35b610143610654565b6040516101509190610bbf565b60405180910390f35b6101616107c5565b60405161016e9190610aad565b60405180910390f35b6002818154811061018757600080fd5b90600052602060002090600202016000915090508060000180546101aa90610cc7565b80601f01602080910402602001604051908101604052809291908181526020018280546101d690610cc7565b80156102235780601f106101f857610100808354040283529160200191610223565b820191906000526020600020905b81548152906001019060200180831161020657829003601f168201915b5050505050908060010154905082565b60008054906101000a900473ffffffffffffffffffffffffffffffffffffffff1673ffffffffffffffffffffffffffffffffffffffff163373ffffffffffffffffffffffffffffffffffffffff16146102c1576040517f08c379a00000000000000000000000000000000000000000000000000000000081526004016102b890610b3f565b60405180910390fd5b600160008273ffffffffffffffffffffffffffffffffffffffff1673ffffffffffffffffffffffffffffffffffffffff16815260200190815260200160002060000160019054906101000a900460ff1615610351576040517f08c379a000000000000000000000000000000000000000000000000000000000815260040161034890610b9f565b60405180910390fd5b600160008273ffffffffffffffffffffffffffffffffffffffff1673ffffffffffffffffffffffffffffffffffffffff16815260200190815260200160002060000160009054906101000a900460ff16156103e1576040517f08c379a00000000000000000000000000000000000000000000000000000000081526004016103d890610b7f565b60405180910390fd5b60018060008373ffffffffffffffffffffffffffffffffffffffff1673ffffffffffffffffffffffffffffffffffffffff16815260200190815260200160002060000160006101000a81548160ff02191690831515021790555050565b6000600160003373ffffffffffffffffffffffffffffffffffffffff1673ffffffffffffffffffffffffffffffffffffffff16815260200190815260200160002090508060000160009054906101000a900460ff166104d2576040517f08c379a00000000000000000000000000000000000000000000000000000000081526004016104c990610b1f565b60405180910390fd5b8060000160019054906101000a900460ff1615610524576040517f08c379a000000000000000000000000000000000000000000000000000000000815260040161051b90610aff565b60405180910390fd5b600160028381548110610560577f4e487b7100000000000000000000000000000000000000000000000000000000600052603260045260246000fd5b90600052602060002090600202016001015461057c9190610bf6565b600283815481106105b6577f4e487b7100000000000000000000000000000000000000000000000000000000600052603260045260246000fd5b90600052602060002090600202016001018190555060018160000160016101000a81548160ff0219169083151502179055505050565b60008054906101000a900473ffffffffffffffffffffffffffffffffffffffff1681565b60016020528060005260406000206000915090508060000160009054906101000a900460ff16908060000160019054906101000a900460ff16908060010154905083565b60008060008060005b60028054905081101561077b576000600282815481106106a6577f4e487b7100000000000000000000000000000000000000000000000000000000600052603260045260246000fd5b90600052602060002090600202016001015411156106c357600191505b82600282815481106106fe577f4e487b7100000000000000000000000000000000000000000000000000000000600052603260045260246000fd5b90600052602060002090600202016001015411156107685760028181548110610750577f4e487b7100000000000000000000000000000000000000000000000000000000600052603260045260246000fd5b90600052602060002090600202016001015492508093505b808061077390610cf9565b91505061065d565b50806107bc576040517f08c379a00000000000000000000000000000000000000000000000000000000081526004016107b390610b5f565b60405180910390fd5b82935050505090565b606060026107d1610654565b81548110610808577f4e487b7100000000000000000000000000000000000000000000000000000000600052603260045260246000fd5b9060005260206000209060020201600001805461082490610cc7565b80601f016020809104026020016040519081016040528092919081815260200182805461085090610cc7565b801561089d5780601f106108725761010080835404028352916020019161089d565b820191906000526020600020905b81548152906001019060200180831161088057829003601f168201915b5050505050905090565b6000813590506108b681610ecd565b92915050565b6000813590506108cb81610ee4565b92915050565b6000602082840312156108e357600080fd5b60006108f1848285016108a7565b91505092915050565b60006020828403121561090c57600080fd5b600061091a848285016108bc565b91505092915050565b61092c81610c4c565b82525050565b61093b81610c5e565b82525050565b600061094c82610bda565b6109568185610be5565b9350610966818560208601610c94565b61096f81610da0565b840191505092915050565b6000610987600e83610be5565b915061099282610db1565b602082019050919050565b60006109aa601883610be5565b91506109b582610dda565b602082019050919050565b60006109cd603183610be5565b91506109d882610e03565b604082019050919050565b60006109f0601883610be5565b91506109fb82610e52565b602082019050919050565b6000610a13601c83610be5565b9150610a1e82610e7b565b602082019050919050565b6000610a36601883610be5565b9150610a4182610ea4565b602082019050919050565b610a5581610c8a565b82525050565b6000602082019050610a706000830184610923565b92915050565b6000606082019050610a8b6000830186610932565b610a986020830185610932565b610aa56040830184610a4c565b949350505050565b60006020820190508181036000830152610ac78184610941565b905092915050565b60006040820190508181036000830152610ae98185610941565b9050610af86020830184610a4c565b9392505050565b60006020820190508181036000830152610b188161097a565b9050919050565b60006020820190508181036000830152610b388161099d565b9050919050565b60006020820190508181036000830152610b58816109c0565b9050919050565b60006020820190508181036000830152610b78816109e3565b9050919050565b60006020820190508181036000830152610b9881610a06565b9050919050565b60006020820190508181036000830152610bb881610a29565b9050919050565b6000602082019050610bd46000830184610a4c565b92915050565b600081519050919050565b600082825260208201905092915050565b6000610c0182610c8a565b9150610c0c83610c8a565b9250827fffffffffffffffffffffffffffffffffffffffffffffffffffffffffffffffff03821115610c4157610c40610d42565b5b828201905092915050565b6000610c5782610c6a565b9050919050565b60008115159050919050565b600073ffffffffffffffffffffffffffffffffffffffff82169050919050565b6000819050919050565b60005b83811015610cb2578082015181840152602081019050610c97565b83811115610cc1576000848401525b50505050565b60006002820490506001821680610cdf57607f821691505b60208210811415610cf357610cf2610d71565b5b50919050565b6000610d0482610c8a565b91507fffffffffffffffffffffffffffffffffffffffffffffffffffffffffffffffff821415610d3757610d36610d42565b5b600182019050919050565b7f4e487b7100000000000000000000000000000000000000000000000000000000600052601160045260246000fd5b7f4e487b7100000000000000000000000000000000000000000000000000000000600052602260045260246000fd5b6000601f19601f8301169050919050565b7f416c726561647920766f7465642e000000000000000000000000000000000000600082015250565b7f566f746572206973206e6f7420726567697374657265642e0000000000000000600082015250565b7f4f6e6c792074686520656c656374696f6e206c65616465722063616e2067726160008201527f6e7420766f74696e67207269676874732e000000000000000000000000000000602082015250565b7f4e6f20766f7465732068617665206265656e20636173742e0000000000000000600082015250565b7f566f74657220697320616c726561647920726567697374657265642e00000000600082015250565b7f54686520766f74657220616c726561647920766f7465642e0000000000000000600082015250565b610ed681610c4c565b8114610ee157600080fd5b50565b610eed81610c8a565b8114610ef857600080fd5b5056fea26469706673582212206ad083e19629e132b56c423c814ef82b47fe12fc01c054f240447d261290d70e64736f6c63430008040033",
  "linkReferences": {},
  "deployedLinkReferences": {}
}